{
  "address": "0xe7f1725E7734CE288F8367e1Bb143E90bb3F0512",
  "abi": [
    {
      "inputs": [
        {
          "internalType": "address",
          "name": "priceFeedAddress",
          "type": "address"
        }
      ],
      "stateMutability": "nonpayable",
      "type": "constructor"
    },
    {
      "inputs": [],
      "name": "FundMe__NotOwner",
      "type": "error"
    },
    {
      "stateMutability": "payable",
      "type": "fallback"
    },
    {
      "inputs": [],
      "name": "MINIMUM_USD",
      "outputs": [
        {
          "internalType": "uint256",
          "name": "",
          "type": "uint256"
        }
      ],
      "stateMutability": "view",
      "type": "function"
    },
    {
      "inputs": [],
      "name": "cheaperWithdraw",
      "outputs": [],
      "stateMutability": "nonpayable",
      "type": "function"
    },
    {
      "inputs": [],
      "name": "fund",
      "outputs": [],
      "stateMutability": "payable",
      "type": "function"
    },
    {
      "inputs": [
        {
          "internalType": "address",
          "name": "fundingAddress",
          "type": "address"
        }
      ],
      "name": "getAddressToAmountFunded",
      "outputs": [
        {
          "internalType": "uint256",
          "name": "",
          "type": "uint256"
        }
      ],
      "stateMutability": "view",
      "type": "function"
    },
    {
      "inputs": [
        {
          "internalType": "uint256",
          "name": "index",
          "type": "uint256"
        }
      ],
      "name": "getFunder",
      "outputs": [
        {
          "internalType": "address",
          "name": "",
          "type": "address"
        }
      ],
      "stateMutability": "view",
      "type": "function"
    },
    {
      "inputs": [],
      "name": "getOwner",
      "outputs": [
        {
          "internalType": "address",
          "name": "",
          "type": "address"
        }
      ],
      "stateMutability": "view",
      "type": "function"
    },
    {
      "inputs": [],
      "name": "getPriceFeed",
      "outputs": [
        {
          "internalType": "contract AggregatorV3Interface",
          "name": "",
          "type": "address"
        }
      ],
      "stateMutability": "view",
      "type": "function"
    },
    {
      "inputs": [],
      "name": "getVersion",
      "outputs": [
        {
          "internalType": "uint256",
          "name": "",
          "type": "uint256"
        }
      ],
      "stateMutability": "view",
      "type": "function"
    },
    {
      "inputs": [],
      "name": "i_owner",
      "outputs": [
        {
          "internalType": "address",
          "name": "",
          "type": "address"
        }
      ],
      "stateMutability": "view",
      "type": "function"
    },
    {
      "inputs": [],
      "name": "priceFeed",
      "outputs": [
        {
          "internalType": "contract AggregatorV3Interface",
          "name": "",
          "type": "address"
        }
      ],
      "stateMutability": "view",
      "type": "function"
    },
    {
      "inputs": [
        {
          "internalType": "address",
          "name": "",
          "type": "address"
        }
      ],
      "name": "s_addressToAmountFunded",
      "outputs": [
        {
          "internalType": "uint256",
          "name": "",
          "type": "uint256"
        }
      ],
      "stateMutability": "view",
      "type": "function"
    },
    {
      "inputs": [
        {
          "internalType": "uint256",
          "name": "",
          "type": "uint256"
        }
      ],
      "name": "s_funders",
      "outputs": [
        {
          "internalType": "address",
          "name": "",
          "type": "address"
        }
      ],
      "stateMutability": "view",
      "type": "function"
    },
    {
      "inputs": [],
      "name": "withdraw",
      "outputs": [],
      "stateMutability": "nonpayable",
      "type": "function"
    },
    {
      "stateMutability": "payable",
      "type": "receive"
    }
  ],
  "transactionHash": "0xa06587445bd07f2ac5d2272020929fe5b2f72e5585ab22fa04a872d80d1427ea",
  "args": [
    "0x5FbDB2315678afecb367f032d93F642f64180aa3"
  ],
  "numDeployments": 1,
  "solcInputHash": "3dded3d1a2f5320e49a6d6f56a21a1c2",
  "bytecode": "0x60806040523480156200001157600080fd5b5060405162001583380380620015838339818101604052810190620000379190620000d7565b33600260006101000a81548173ffffffffffffffffffffffffffffffffffffffff021916908373ffffffffffffffffffffffffffffffffffffffff16021790555080600360006101000a81548173ffffffffffffffffffffffffffffffffffffffff021916908373ffffffffffffffffffffffffffffffffffffffff160217905550506200015c565b600081519050620000d18162000142565b92915050565b600060208284031215620000f057620000ef6200013d565b5b60006200010084828501620000c0565b91505092915050565b600062000116826200011d565b9050919050565b600073ffffffffffffffffffffffffffffffffffffffff82169050919050565b600080fd5b6200014d8162000109565b81146200015957600080fd5b50565b611417806200016c6000396000f3fe6080604052600436106100c65760003560e01c8063741bef1a1161007f578063b60d428811610059578063b60d428814610284578063be2693f01461028e578063d7b4750c146102a5578063dba6335f146102e2576100d5565b8063741bef1a14610203578063893d20e81461022e5780639e87a5cd14610259576100d5565b80630343fb25146100df5780630d8e6e2c1461011c5780631bf6132d146101475780633ccfd60b1461018457806354861af71461019b5780636b69a592146101d8576100d5565b366100d5576100d361030d565b005b6100dd61030d565b005b3480156100eb57600080fd5b5061010660048036038101906101019190610d42565b610447565b6040516101139190610f65565b60405180910390f35b34801561012857600080fd5b5061013161048f565b60405161013e9190610f65565b60405180910390f35b34801561015357600080fd5b5061016e60048036038101906101699190610d42565b610536565b60405161017b9190610f65565b60405180910390f35b34801561019057600080fd5b5061019961054e565b005b3480156101a757600080fd5b506101c260048036038101906101bd9190610d6f565b610790565b6040516101cf9190610eef565b60405180910390f35b3480156101e457600080fd5b506101ed6107cf565b6040516101fa9190610f65565b60405180910390f35b34801561020f57600080fd5b506102186107dc565b6040516102259190610f0a565b60405180910390f35b34801561023a57600080fd5b50610243610802565b6040516102509190610eef565b60405180910390f35b34801561026557600080fd5b5061026e61082c565b60405161027b9190610f0a565b60405180910390f35b61028c61030d565b005b34801561029a57600080fd5b506102a3610856565b005b3480156102b157600080fd5b506102cc60048036038101906102c79190610d6f565b610ae8565b6040516102d99190610eef565b60405180910390f35b3480156102ee57600080fd5b506102f7610b30565b6040516103049190610eef565b60405180910390f35b6802b5e3af16b188000061034c600360009054906101000a900473ffffffffffffffffffffffffffffffffffffffff1634610b5690919063ffffffff16565b101561038d576040517f08c379a000000000000000000000000000000000000000000000000000000000815260040161038490610f45565b60405180910390fd5b346000803373ffffffffffffffffffffffffffffffffffffffff1673ffffffffffffffffffffffffffffffffffffffff16815260200190815260200160002060008282546103db9190610f9c565b925050819055506001339080600181540180825580915050600190039060005260206000200160009091909190916101000a81548173ffffffffffffffffffffffffffffffffffffffff021916908373ffffffffffffffffffffffffffffffffffffffff160217905550565b60008060008373ffffffffffffffffffffffffffffffffffffffff1673ffffffffffffffffffffffffffffffffffffffff168152602001908152602001600020549050919050565b6000600360009054906101000a900473ffffffffffffffffffffffffffffffffffffffff1673ffffffffffffffffffffffffffffffffffffffff166354fd4d506040518163ffffffff1660e01b815260040160206040518083038186803b1580156104f957600080fd5b505afa15801561050d573d6000803e3d6000fd5b505050506040513d601f19601f820116820180604052508101906105319190610d9c565b905090565b60006020528060005260406000206000915090505481565b600260009054906101000a900473ffffffffffffffffffffffffffffffffffffffff1673ffffffffffffffffffffffffffffffffffffffff163373ffffffffffffffffffffffffffffffffffffffff16146105d5576040517f579610db00000000000000000000000000000000000000000000000000000000815260040160405180910390fd5b60005b600180549050811015610680576000600182815481106105fb576105fa6112cd565b5b9060005260206000200160009054906101000a900473ffffffffffffffffffffffffffffffffffffffff16905060008060008373ffffffffffffffffffffffffffffffffffffffff1673ffffffffffffffffffffffffffffffffffffffff1681526020019081526020016000208190555050808061067890611226565b9150506105d8565b50600067ffffffffffffffff81111561069c5761069b6112fc565b5b6040519080825280602002602001820160405280156106ca5781602001602082028036833780820191505090505b50600190805190602001906106e0929190610c32565b5060003373ffffffffffffffffffffffffffffffffffffffff164760405161070790610eda565b60006040518083038185875af1925050503d8060008114610744576040519150601f19603f3d011682016040523d82523d6000602084013e610749565b606091505b505090508061078d576040517f08c379a000000000000000000000000000000000000000000000000000000000815260040161078490610f25565b60405180910390fd5b50565b600181815481106107a057600080fd5b906000526020600020016000915054906101000a900473ffffffffffffffffffffffffffffffffffffffff1681565b6802b5e3af16b188000081565b600360009054906101000a900473ffffffffffffffffffffffffffffffffffffffff1681565b6000600260009054906101000a900473ffffffffffffffffffffffffffffffffffffffff16905090565b6000600360009054906101000a900473ffffffffffffffffffffffffffffffffffffffff16905090565b600260009054906101000a900473ffffffffffffffffffffffffffffffffffffffff1673ffffffffffffffffffffffffffffffffffffffff163373ffffffffffffffffffffffffffffffffffffffff16146108dd576040517f579610db00000000000000000000000000000000000000000000000000000000815260040160405180910390fd5b6000600180548060200260200160405190810160405280929190818152602001828054801561096157602002820191906000526020600020905b8160009054906101000a900473ffffffffffffffffffffffffffffffffffffffff1673ffffffffffffffffffffffffffffffffffffffff1681526020019060010190808311610917575b5050505050905060005b81518110156109eb576000828281518110610989576109886112cd565b5b6020026020010151905060008060008373ffffffffffffffffffffffffffffffffffffffff1673ffffffffffffffffffffffffffffffffffffffff168152602001908152602001600020819055505080806109e390611226565b91505061096b565b50600067ffffffffffffffff811115610a0757610a066112fc565b5b604051908082528060200260200182016040528015610a355781602001602082028036833780820191505090505b5060019080519060200190610a4b929190610c32565b506000600260009054906101000a900473ffffffffffffffffffffffffffffffffffffffff1673ffffffffffffffffffffffffffffffffffffffff1647604051610a9490610eda565b60006040518083038185875af1925050503d8060008114610ad1576040519150601f19603f3d011682016040523d82523d6000602084013e610ad6565b606091505b5050905080610ae457600080fd5b5050565b600060018281548110610afe57610afd6112cd565b5b9060005260206000200160009054906101000a900473ffffffffffffffffffffffffffffffffffffffff169050919050565b600260009054906101000a900473ffffffffffffffffffffffffffffffffffffffff1681565b600080610b6283610b92565b90506000670de0b6b3a76400008583610b7b919061113a565b610b859190610ff2565b9050809250505092915050565b6000808273ffffffffffffffffffffffffffffffffffffffff1663feaf968c6040518163ffffffff1660e01b815260040160a06040518083038186803b158015610bdb57600080fd5b505afa158015610bef573d6000803e3d6000fd5b505050506040513d601f19601f82011682018060405250810190610c139190610dc9565b5050509150506402540be40081610c2a9190611023565b915050919050565b828054828255906000526020600020908101928215610cab579160200282015b82811115610caa5782518260006101000a81548173ffffffffffffffffffffffffffffffffffffffff021916908373ffffffffffffffffffffffffffffffffffffffff16021790555091602001919060010190610c52565b5b509050610cb89190610cbc565b5090565b5b80821115610cd5576000816000905550600101610cbd565b5090565b600081359050610ce881611385565b92915050565b600081519050610cfd8161139c565b92915050565b600081359050610d12816113b3565b92915050565b600081519050610d27816113b3565b92915050565b600081519050610d3c816113ca565b92915050565b600060208284031215610d5857610d5761132b565b5b6000610d6684828501610cd9565b91505092915050565b600060208284031215610d8557610d8461132b565b5b6000610d9384828501610d03565b91505092915050565b600060208284031215610db257610db161132b565b5b6000610dc084828501610d18565b91505092915050565b600080600080600060a08688031215610de557610de461132b565b5b6000610df388828901610d2d565b9550506020610e0488828901610cee565b9450506040610e1588828901610d18565b9350506060610e2688828901610d18565b9250506080610e3788828901610d2d565b9150509295509295909350565b610e4d81611194565b82525050565b610e5c816111f0565b82525050565b6000610e6f600b83610f8b565b9150610e7a82611330565b602082019050919050565b6000610e92601b83610f8b565b9150610e9d82611359565b602082019050919050565b6000610eb5600083610f80565b9150610ec082611382565b600082019050919050565b610ed4816111d0565b82525050565b6000610ee582610ea8565b9150819050919050565b6000602082019050610f046000830184610e44565b92915050565b6000602082019050610f1f6000830184610e53565b92915050565b60006020820190508181036000830152610f3e81610e62565b9050919050565b60006020820190508181036000830152610f5e81610e85565b9050919050565b6000602082019050610f7a6000830184610ecb565b92915050565b600081905092915050565b600082825260208201905092915050565b6000610fa7826111d0565b9150610fb2836111d0565b9250827fffffffffffffffffffffffffffffffffffffffffffffffffffffffffffffffff03821115610fe757610fe661126f565b5b828201905092915050565b6000610ffd826111d0565b9150611008836111d0565b9250826110185761101761129e565b5b828204905092915050565b600061102e826111a6565b9150611039836111a6565b9250827f7fffffffffffffffffffffffffffffffffffffffffffffffffffffffffffffff04821160008413600084131616156110785761107761126f565b5b817f800000000000000000000000000000000000000000000000000000000000000005831260008412600084131616156110b5576110b461126f565b5b827f800000000000000000000000000000000000000000000000000000000000000005821260008413600084121616156110f2576110f161126f565b5b827f7fffffffffffffffffffffffffffffffffffffffffffffffffffffffffffffff058212600084126000841216161561112f5761112e61126f565b5b828202905092915050565b6000611145826111d0565b9150611150836111d0565b9250817fffffffffffffffffffffffffffffffffffffffffffffffffffffffffffffffff04831182151516156111895761118861126f565b5b828202905092915050565b600061119f826111b0565b9050919050565b6000819050919050565b600073ffffffffffffffffffffffffffffffffffffffff82169050919050565b6000819050919050565b600069ffffffffffffffffffff82169050919050565b60006111fb82611202565b9050919050565b600061120d82611214565b9050919050565b600061121f826111b0565b9050919050565b6000611231826111d0565b91507fffffffffffffffffffffffffffffffffffffffffffffffffffffffffffffffff8214156112645761126361126f565b5b600182019050919050565b7f4e487b7100000000000000000000000000000000000000000000000000000000600052601160045260246000fd5b7f4e487b7100000000000000000000000000000000000000000000000000000000600052601260045260246000fd5b7f4e487b7100000000000000000000000000000000000000000000000000000000600052603260045260246000fd5b7f4e487b7100000000000000000000000000000000000000000000000000000000600052604160045260246000fd5b600080fd5b7f43616c6c206661696c6564000000000000000000000000000000000000000000600082015250565b7f596f75206e65656420746f207370656e64206d6f726520455448210000000000600082015250565b50565b61138e81611194565b811461139957600080fd5b50565b6113a5816111a6565b81146113b057600080fd5b50565b6113bc816111d0565b81146113c757600080fd5b50565b6113d3816111da565b81146113de57600080fd5b5056fea26469706673582212207b9910daddbc2d508e336fcc979b7afc4e5d768a21b765044b65b55298df421064736f6c63430008070033",
  "devdoc": {
    "kind": "dev",
    "methods": {},
    "version": 1
  },
  "userdoc": {
    "kind": "user",
    "methods": {},
    "version": 1
  },
  "storageLayout": {
    "storage": [
      {
        "astId": 58,
        "contract": "contracts/FundMe.sol:FundMe",
        "label": "s_addressToAmountFunded",
        "offset": 0,
        "slot": "0",
        "type": "t_mapping(t_address,t_uint256)"
      },
      {
        "astId": 61,
        "contract": "contracts/FundMe.sol:FundMe",
        "label": "s_funders",
        "offset": 0,
        "slot": "1",
        "type": "t_array(t_address)dyn_storage"
      },
      {
        "astId": 63,
        "contract": "contracts/FundMe.sol:FundMe",
        "label": "i_owner",
        "offset": 0,
        "slot": "2",
        "type": "t_address"
      },
      {
        "astId": 73,
        "contract": "contracts/FundMe.sol:FundMe",
        "label": "priceFeed",
        "offset": 0,
        "slot": "3",
        "type": "t_contract(AggregatorV3Interface)45"
      }
    ],
    "types": {
      "t_address": {
        "encoding": "inplace",
        "label": "address",
        "numberOfBytes": "20"
      },
      "t_array(t_address)dyn_storage": {
        "base": "t_address",
        "encoding": "dynamic_array",
        "label": "address[]",
        "numberOfBytes": "32"
      },
      "t_contract(AggregatorV3Interface)45": {
        "encoding": "inplace",
        "label": "contract AggregatorV3Interface",
        "numberOfBytes": "20"
      },
      "t_mapping(t_address,t_uint256)": {
        "encoding": "mapping",
        "key": "t_address",
        "label": "mapping(address => uint256)",
        "numberOfBytes": "32",
        "value": "t_uint256"
      },
      "t_uint256": {
        "encoding": "inplace",
        "label": "uint256",
        "numberOfBytes": "32"
      }
    }
  }
}